:02000004C0D06A
:1000000010B5044610480021017062B606F001FDEB
:1000100005F0A8FB002C0DD00120000221688142D0
:1000200005D16068012809D1A068002803D105F036
:100030007DFF06E0002005F099FF02E0204606F073
:10004000F7FB002010BDC0468B06002010B5002332
:10005000052A13D30C79521FA2420FD10A780270DD
:100060004A7842708A788270CA78C2700A790271BE
:100070000A79002A00D04A1D82600123184610BD6B
:10008000F0B587B0049301920E46069003F09CFFF2
:10009000054603F099FF0446A427284639460DF08B
:1000A0009FFAA434204639460DF09AFA0027F84307
:1000B0000290B01EA22814D803942846069C21461C
:1000C00032460DF096FA2B4A7A44F8B2B0420CD27E
:1000D0002156002905D4C9B2515C29547F1CFF293F
:1000E000F3D1029A104607B0F0BD0027049AF9B286
:1000F000B14204D2685C002801D17F1CF7E700916F
:100100000696FBB2B3421DD200240597F8B2B04266
:1001100008D2295C3A22624351180A0A2A54CCB206
:100120007F1CF3E7E85C0699491E0691CBB2039960
:10013000CC54002802D0049A059FE2E7059F7F1C5B
:10014000049ADEE7039B069CE1B2B14203D2585CFD
:10015000641C0028F8D0009D681A84199442019804
:10016000029ABFDC5918491B22460DF042FA22467A
:10017000B8E7C0467CD60000F0B5B3B01E461446C2
:100180000F46049009A8A6210DF02AFA0025E8439D
:100190000390782F62D8059702940096AF4206D05C
:1001A0000498405D002804D16D1C059FF6E73D468C
:1001B00000E0059F791B8A20484364210DF034F844
:1001C000064607900598019585421FD2049806952A
:1001D000405D711E0891079E002E12D409ADA95DE5
:1001E00009020F183A24384621460DF01DF8444301
:1001F000391BA95508998E4201D83A2F02D3761E91
:10020000EAE7039E069D6D1C0598DDE70798441CF0
:100210000020029D019E0799884206D809A9095C21
:10022000002901D1401CF6E7044607983018001B4E
:10023000401C0099884211D83122284631460DF0E1
:10024000DCF90848784407998C4206D809A9095D69
:10025000415CA955761C641CF5E70396039833B0FE
:10026000F0BDC04680D50000F8B50092062B01D93C
:100270000020F8BD1C460E4607460025002C0AD07B
:10028000B542F5D83846294608F0A6F900994851F4
:10029000641E2D1DF2E70120F8BD0000F0B589B005
:1002A00007920890002006296ED81C46002B6BD0C0
:1002B0000A46002902D10020079908700492501EB6
:1002C0000190002231487844039010460294069031
:1002D00081B2049881424DD2079885181746A61A14
:1002E00005918C00089803590120C00783432846D4
:1002F0003146039A07F06EF828460DF0E7F900281A
:100300003AD0B04238D2089909193A46C219086859
:10031000002801D4029C13E007988518029C174618
:10032000A61A1B4A7A442846314607F053F8284655
:100330000DF0CCF9002822D0B04220D23A46C219A2
:1003400005990198884212D0079885181746A61A71
:10035000104A7A442846314607F03CF828460DF00A
:10036000B5F900280BD0B04209D23A46C219069816
:10037000401CACE7012007E00798029901E00798CC
:1003800021460DF02DF9002009B0F0BD56D800002F
:10039000DAD40000AED40000F8B5044601200D46C2
:1003A00085430026022D07D1C5076A40276897427A
:1003B00002D16268002A01D43046F8BD0094069F3D
:1003C000002F08D07F1C7F1EF6D01C1D1B686B40C1
:1003D0009A422346F7D1022905D0653500988068F6
:1003E000A84201DB0020F8BD0120F8BDBCB5002407
:1003F00005291AD105460698009003212846FFF7E3
:10040000CBFF002811D0E86801280ED807990129F0
:1004100002D8884202D008E0481C06D12869044965
:10042000884201D3002400E001242046BCBDC04620
:1004300051C30000012807D0042807D0032807D0A3
:10044000022807D1542070472C207047562070474F
:10045000312070470020C0437047F8B504460020A3
:10046000002A17D00B780A2B14D89D006D1C9542DA
:1004700010D82370261D4D1C00279F4209D2012150
:100480000022284601F01EFF01C62D1D7F1C237887
:10049000F3E70120F8BD0000F0B58DB04A484B4CA1
:1004A00000272752AF2080000090275401AE30462D
:1004B0000DF0E0F80546B08580B2002812D005287E
:1004C00079D001A887850B980AF0CCFC02203E4920
:1004D000605240486F21017045700121204602F0B2
:1004E000DBF844E001A80AF0BDFC0B90208802F084
:1004F000D8F82078002801D0354815E0354A5078E2
:100500001378374979440D2F0CD0364D7D44ED5D7D
:10051000AB4204D1344D7D44ED5DA84235D0091D78
:100520007F1CF0E76D200002274E009D2A49605293
:10053000615DF1229200A25C002A0AD0EF221140F4
:10054000615509221203904203D05D22234B0125FD
:100550009D54A35B020A1F4DEA549A1CA253EB1848
:100560005870C80603D491B2202006F0B7FC0AF0F8
:100570006FFC01A9884202D10B980AF073FC01A814
:10058000808D00281DD10DB0F0BD18487844C05DA5
:1005900000280D4E009D09D0672000021279002A24
:1005A000C4D05722D200A25A052ABFD0086807F04B
:1005B000A7F98047BAE701A887850B980AF052FC93
:1005C000052006F02BFAC046BA0200000002002007
:1005D000AA6F0000E8070020BE020000C805002046
:1005E000B0D300007FD3000082D3000019D30000F5
:1005F000F8B52F4C7C44204607F082F9808802F041
:1006000050F8204607F07CF98088C0B2234CFF28C0
:1006100042D02848784407F073F9808800063BD020
:100620001F480468054620891E4F78706189F9705B
:10063000227B3A71000A3870080AB8700D341E4ED9
:100640007E442046B04702467871B81D214606F028
:1006500002FA2C6820460D30B0470546801D0090F8
:100660002B342046B0470099C9B27854E81D009059
:10067000C5B22046B04702467819214606F0EBF98C
:10068000074800682B30B04700994018C0B20649AF
:10069000064A5052092004032046F8BD856900002F
:1006A0008C060020E8070020BA02000000020020AB
:1006B00088ED000068ED000089D0000010B51148F9
:1006C000784407F01DF90C490C4A082353520C4991
:1006D00001224A7100230B71CB708A7030244C7058
:1006E00080798B710323CB7110401B2242400A702A
:1006F0000920000310BDC046BA020000000200201D
:10070000E8070020BCEC000010B51A4C7C442046E1
:1007100007F0F6F8808801F0C4FF204607F0F0F8F3
:100720008088C0B20F4CFF2819D01348784407F0D6
:10073000E7F88088000612D00B4CA078002802D081
:100740006B2004020BE00D48784407F0D9F8074904
:10075000074A012353528088207009200403204651
:1007600010BDC04685690000E8070020BA020000FD
:100770000002002070EC000050EC000034EC00009F
:1007800010B50A480479002C00D1F824F82C02D9BD
:100790006720000210BD0548214603F0F3FB044822
:1007A00004490C520920000310BDC046E807002090
:1007B000BA02000000020020F0B585B0524F38792F
:1007C0000490564D7D44284607F09AF8808801F041
:1007D00068FF284607F094F88088C0B24B4C042884
:1007E00000D98BE00126314681401620014200D11C
:1007F00084E0B8786B210D0280281BD000287ED1C0
:10080000781D002731463A4601F05CFDAD21890094
:100810003F4A50502B20000117543E481754A9203E
:10082000800017546520800016541775D777364F0F
:10083000042000E00020F978002960D10499091A09
:100840005522D200324EB1543818401DAB218900D8
:100850007050012001F0ECFF09200503307D0828CD
:100860004DD1002030752B200001305C002844D091
:1008700020203946303104910091039001903C468C
:10088000374628370121002638463246334603F0E2
:1008900037FB002836D1384603F02CFB08210291A3
:1008A000204603F06FFB667032202070221D0498F2
:1008B000039F39463B4603F029FBAD208000144ED0
:1008C00031582046243001F01CFD204628303146A6
:1008D0001531029A06F0BFF81148784407F010F875
:1008E000049900910197083030233946224603F0DD
:1008F00013FB09483821315201E0FB3425462846D4
:1009000005B0F0BD06F08AF8E80700208569000010
:1009100000020020B2030000BA020000B8EB0000A1
:10092000A2EA000070B59EB01E4614460D4601A90D
:100930000091012114AB324601F06FFD002D01D072
:10094000412504E001A8083001F0F6FB212501A9AA
:1009500008314122204606F07EF828461EB070BDC0
:10096000F0B59BB0AF4E7E44304606F0C9FF8079AB
:100970000A90A64CA0780B90304606F0C1FF2926BD
:10098000805D002700283D4608D0A07802283D461B
:1009900004D19F488079C01F45424541A248784410
:1009A00006F0AEFF805D0B9A012A08D0002D06D11B
:1009B000002804D096488079C01F47424741F12063
:1009C00080009449085C944EFE36E178002803D0FC
:1009D000012A01D1374685E009976B200702A078EC
:1009E00002287FD8022905D37CD18C480068806B0F
:1009F000002877D02079002872D00891012A03D1ED
:100A0000601D05F0ABFE0690002D09D060798000D6
:100A1000801DC0B220180121002201F053FC1A9061
:100A2000824F7F44384606F06BFF808801F039FE24
:100A3000384606F065FF784AD71C8088C0B2042883
:100A400050D8012107918140162001424AD0174613
:100A50000AF09AF9AA2845D10A9F07980740601D15
:100A60000A90012101F05EFD079041202070621C78
:100A700012AB0A980A9739461746FFF753FF0899B1
:100A80000246481E022830D20CA814230393437058
:100A9000002305930370D1B2831C38461F4604928D
:100AA0001A4601F036FC5D480068089902292BD1EE
:100AB0000499806B002834D006F022FF0146039889
:100AC00000903B46274643370022384607F0E8FFB0
:100AD000C1B20846012925D138460CF0F7FD1EE0C9
:100AE0006720070238461BB0F0BD4C4800680089FB
:100AF000002100900191D1B222464332962338461C
:100B000001F048FCC7B20EE04089009005980190C2
:100B1000224643320CA81621962301F03BFCC0B2BA
:100B200000E0C8B20746422027540A98002801D1A5
:100B300004206070E0190A90433012A9202205F0C9
:100B40008AFF384663303649324A505211460B9874
:100B500001282FD0079800282CD0002D46D024251E
:100B6000485D002808D02B4920311AA8042205F03E
:100B70007EFF2849002839D000264E5508462030EF
:100B80000F461AA9042205F06CFF1A9B2046C830B4
:100B90000925274A7A44294606F01CFCD020265411
:100BA000AF208000395C10220A433A5405F002FE5F
:100BB0002F0397E7322F3A46374693D82046C8305E
:100BC00043340D46214605F046FFC82000210A9A0D
:100BD0001154AF208000295C10220A432A54069841
:100BE000C0B205F0C9FD092007037BE70920070310
:100BF0000998002800D175E7AF2080000B46095CFA
:100C000010220A431A5405F0DFFD6BE7E8070020C5
:100C1000EC08002000020020826900008C06002001
:100C2000BA02000016EA0000DEE900005AE90000FE
:100C30006ECC000070B5002802D06F21CA4300E0DE
:100C400069220D4C0D4D002801D1014601E0295BC0
:100C5000891E8EB20A4B9A558A1C2A53002801D04D
:100C6000002001E07A20C043491C89B2585491B257
:100C7000202006F033F970BDBA0200000002002007
:100C8000E8070020B0B50848084D00242C52752014
:100C9000C00001212954064828180822214605F0E1
:100CA000EAFE04482C54B0BD9A0300000002002064
:100CB000A9030000B1030000F0B58FB0E920860061
:100CC000834F0024BC517520C500785D022823D0D5
:100CD000012800D0F9E01D204601BC517D48395A59
:100CE000002900D1D9E07E48385CFD281FD20122BE
:100CF00002217955B851E721890078507848381891
:100D00008118744C15463A5B521B05F0A4FE385B03
:100D1000401B38530124C0E06E4D795B092900D295
:100D2000BBE06D4BF85CFC2812D809221FE0FE28BE
:100D30003ED0FD2800D0C8E0032900D2ADE06E48C7
:100D4000385C6721C900795C090208180322CFE7E3
:100D5000FD2800D0B9E00B2900D29EE05F4838188A
:100D600000210A4601F0AEFA5B4B795B0B221218A8
:100D70008A4200D991E00720C043012405920496DD
:100D800000281FD03918C95C401C0029F8D05448ED
:100D900039180DAD082228461E4601F035FB514892
:100DA000381801462A4601F093FC334603940BE0C1
:100DB000052972D35048381800210A4601F082FAFA
:100DC000052295E700200390FE18304601F042FA14
:100DD0000690304601F002FA0290304601F018FA0F
:100DE00001905C253046294601F039FA3046294603
:100DF00001F056FA069D681E8541304601F0B6F9AD
:100E00000399C9432942029901D108435DD006984C
:100E10000028059A049D39D13348385C002835D024
:100E20000198084301D0032600E004262A4B00293C
:100E300022D0A9208000385C002827D007AD069674
:100E400014266E700020287028483918A81C3246D5
:100E500005F001FE162128462A4601F05AFA0698A6
:100E600038181D4940182946324605F000FE002872
:100E700016D0059A049D09E01C483918B819C01805
:100E8000142205F0F4FD059A002810D07A51AF2005
:100E90008000395C10220A433A5420460FB0F0BD5E
:100EA000134800684821405C40070ED5059A114858
:100EB000395C002909D101213954E72080003958D3
:100EC000491E3950002AE8D018E7012005F0A6FD98
:100ED000000200209A0300003E0300003F030000D0
:100EE00036030000A9030000320300001E030000C7
:100EF0008C060020B10300003703000080B58CB0E1
:100F000000910121002202AB01F087FA0CB080BDF4
:100F100010B594B00C4601A9FFF7F0FF0A487844D9
:100F200006F0EEFC8079C00705D101A8083001F079
:100F300003F9212100E0412101A80830224601F0F7
:100F4000E8F914B010BDC0465EE40000F0B59DB0F5
:100F5000C84A11799478002C03D0FF2C01D0802C42
:100F600011D10691C44BC54EA92189000791715C2E
:100F70000027002912D0F15C00290FD15179FD29F9
:100F800004D201270AE06B20050260E1FE2901D0AE
:100F9000002700E00527FD2900D10327089009ADAF
:100FA00028460CF067FBA885000405D009A800219D
:100FB00081856F20050230E109A809F053FF1390E5
:100FC000307DAF4D092800D027E1FF2C42D1707F42
:100FD000002800D10CE1CD208700F05D002800D171
:100FE0001BE1002458220898214605F044FDA14841
:100FF0004079002800D1FBE00394089C23349D48ED
:10100000411D2922204605F026FDA548311820461D
:10101000FFF77EFF0398F0559E4801213154274683
:10102000204601F03BFA002800D1E1E0F1208000E9
:10103000305C002800D0F0E07520C000042131545D
:10104000AF208000315C10220A433254384605F04C
:10105000C5FBCDE08B48305C00280CD10698C31B43
:1010600012D40021009101918248C019421D3046DE
:10107000283000F017F9707F0028069F28D0824C96
:10108000305BC119642901D9FB35C6E030187F49AE
:1010900040187849491D3A4605F0DDFC305BC0191F
:1010A0003053AF208400FFF707FE315D10220B465E
:1010B0001340002801D0002BF3D0E72080003058E7
:1010C000034305D17520C000032333541143315528
:1010D0000798305C67498978002923D0002810D10F
:1010E0002020019015A800902520C00030186149EB
:1010F0004A1D01213B4600F0D5F80798305C0028D6
:101100004FD06048305C002821D02020019015A8E5
:1011100000902520C00030183321C9007218012129
:1011200060233CE00028534C09D10021009101913B
:101130002520C0003018621D3B4600F0B3F80120A6
:101140004D497054554970520020207050E050486D
:10115000305C049020243B20C0003218009201949F
:1011600037462837012100233846059200F09AF8C7
:10117000049800280AD1384602F010FF059A009220
:10118000019401213846234600F08CF8019415A8FB
:1011900000902520C00030180121364A002300F0BD
:1011A00081F8707F002829D03A48305C002804D1AB
:1011B00000215822089805F05EFC37480068017A43
:1011C000089C6170807AA07020464C30082102F0A3
:1011D000D9FE324802213152002026494870087059
:1011E000707F002812D0E01C15A9202205F033FCE6
:1011F000139809F037FE0920050328E0274802214B
:10120000315200201B4948700870089CE11C15A849
:10121000202201F04AF800281CD0139809F022FE81
:101220001E4C002030533075174FF25B17483118B1
:10123000104805F010FCF05B305309F009FE09A9D5
:10124000884202D1139809F00DFEFFF71BFD2846D6
:101250001DB0F0BD0798315C0A20002906D0094A6C
:10126000B15C002902D10120B05400203075092062
:101270000503E2E7E8070020350300000002002034
:1012800085690000A60200009A03000036030000F2
:10129000B2030000320300008C060020BA020000F6
:1012A0001E0300001CB504460598019004980090A8
:1012B000204602F025FE002803D1204602F01AFE47
:1012C0001CBD05F0ABFB000070B5B1208000134DD4
:1012D0002818FFF73BFE0446AF208600A85DC00635
:1012E0001AD57520C000295C042904D0032905D132
:1012F00005F010FA04E0012129540DE005F0DEF9B3
:10130000002809D1064800212952A85DEF22024099
:10131000AA552975D520C401204670BD00020020C1
:10132000BA020000FEB509210C030028029446D041
:10133000E7208700414DE8597521CE00A95D0229BB
:1013400001D1401EE851002820462AD001963C4891
:101350002818E9218C002A5981183A4EAB5B9A1A59
:1013600005F079FB285BA95B081AA853AF2084001D
:10137000285DEF2101402955FFF79EFC2A5D1021D1
:101380001140002801D00029F6D000290298019EC2
:1013900007D005F093F900280FD1002028752A48BE
:1013A000FB30A95D022912D1EA59002A0FD103208E
:1013B000A85505F0AFF900281BD00120FEBD1F483D
:1013C000002202757521C900415C1F481CE00329F9
:1013D00017D100226A77A92189006C5C03210A23B6
:1013E000002C0CD0194C2E5D002E08D101232B555A
:1013F00006E00022AA551448FB30114600E01A46C8
:101400002A75134AAA5A921E931C114D0B4C635312
:1014100096B2070A0F4DAF55521C92B2A854029AC9
:10142000904201D1032903D1FFF72CFC0848235A2D
:1014300099B2202005F052FD0020FEBD00020020E0
:10144000360300009A03000085690000A602000030
:10145000BA020000E8070020F8B54C4D2E79544C34
:101460007C44204606F04CFA808801F01AF92046A8
:1014700006F046FA0146464CE01C8988C9B20429A8
:1014800000D982E0009601273A468A4016210A4296
:101490007BD040487630A978802908D0002974D1C3
:1014A000652292003C4B03269E5400221A75EA786E
:1014B000052A2BD8012A29D0002929D1901E0428D9
:1014C00000D30027344E707F002804D109F05CFC63
:1014D000AA28204659D13148002434523048345487
:1014E00030483454A9208000375401277777F4839B
:1014F0002D4830181822214605F0BDFACD20800075
:1015000037542A483454EA78A97801E0802A3CD13B
:10151000214C802A2CD0A9208000205C002827D0D4
:10152000224AA05C002823D1802921D128790A38B9
:1015300031281DD8687902281AD8012808D1A8793D
:10154000382805D1E879322802D1287A00280FD02E
:10155000F1208000205C00280E4816D10120A05404
:10156000AF208000215C10220A43225405F056F976
:101570005520C00000992154AB208000691D2150E6
:10158000022001F055F909200003F8BDE80700200A
:10159000826900008A6A000000020020B203000095
:1015A000A5020000A60200001E030000A702000022
:1015B0001CDF0000F0B595B0894C7C44204606F055
:1015C0009FF9808801F06DF8204606F099F980882F
:1015D000C0B2794C042811D8012529468140162033
:1015E00001420BD0754FB878F978014301D06B20D8
:1015F00003E03879072804D267200402204615B09A
:10160000F0BD07AE30460CF035F8B085000410D0C0
:1016100007A8002181856F200402119809F022FC9F
:1016200068480021017509F013FC07A98842E5D13B
:1016300040E007A809F016FC1190624A6248105C6D
:101640006249515C127D002A38D1002936D0002829
:1016500034D15B4B5B4EF35C002B2FD0781D797936
:101660008900491C425C40188418601C00262946E9
:10167000324600F027FE074660790390A01D2946F8
:10168000324600F01FFE0290EF2080004D4E3018D1
:10169000544C7C443946A0470F20800130180399F0
:1016A000A0477720C00030180299A047464835541B
:1016B00009200403119809F0D5FB9FE7431E9841C8
:1016C0004B424B410A2AA8D10343A6D0FB34787978
:1016D0000A28A2D83E483B4908187D1D29220590BA
:1016E000294605F0B8F978798000401C295C281853
:1016F0004518681C0126002731463A4600F0E2FDF5
:1017000004906D7933482F490D543748784406F0DA
:10171000F7F8807940070ED42F480068C06B002886
:1017200005D0412D00D078E70502413503E0012DB9
:10173000354600D071E70696224E2448305C0028DA
:1017400011D113AC2046049900F0DBFD201D294681
:1017500000F0D7FD0097019730462830082339461E
:10176000224600F043F80021059C204600F0DAFEF6
:10177000002804D00120014600F04AF808E0AF201C
:101780008000315C10220A433254204605F036F8BE
:10179000F1208000305C09210C03002800D142E7D1
:1017A0000E488168491C81604268914200DA3AE73C
:1017B0005D21069A425436E785690000E80700205B
:1017C000A602000000020020B3030000B2030000E4
:1017D000E70200001A0300008C060020C805002064
:1017E000C2DD00006D0C000070DC00001CB504467A
:1017F0000598019004980090204602F081FB002893
:1018000003D1204602F076FB1CBD05F007F900006D
:10181000F0B5B1B00E46002816D00025009530482E
:10182000304F381827AB29462A4600F0F6FD2E48DF
:10183000385C00280FD0202001901FAA0092384663
:101840002830012100231FE02949264A0020505258
:101850006921852535E00396202601961FAF009764
:10186000204828300121029100233A46FFF7BEFFAD
:1018700004AC204602F092FB0097019620460299A4
:101880003A46184F3346039EFFF7B0FF1A48784494
:1018900006F036F88079412189008007C00F009159
:1018A000019027A81FA92022104C234600F0C6FE55
:1018B0006178C81C0E4AB8520E4ABA5C09198A707F
:1018C0009021002E0AD1094A1154811C084B054C65
:1018D000E15210184570202005F000FB31B0F0BD3A
:1018E000E702000000020020B2030000E807002029
:1018F000BA0200001A030000EEDA0000F8B5284D25
:101900002879012843D1284C7C44204605F0F8FF73
:10191000808800F0C6FE204605F0F2FF8088C0B245
:10192000204EFF2836D02148784405F0E9FF808812
:1019300000062FD009F028FAAA282ED16C791C486D
:10194000784405F0DDFF09210F038088C0B284428E
:101950001BD03046FB30082C1DD80121A1408B2222
:101960005200114217D0134D7D44284605F0C8FFA0
:10197000408800F096FE284605F0C2FF40882042CD
:10198000304608D0204600F0DFFB384603E06720F1
:10199000000200E0304680B2F8BDF01EFBE7C04612
:1019A000E80700208569000074DA000054DA0000BE
:1019B0003CDA000014DA00006D20000270470000DD
:1019C000F0B58FB00DAE002106220292304605F030
:1019D00052F80A200E9901433171012403943046D4
:1019E000214600F059FEB01C214600F055FE134D73
:1019F0007D44134C7C442846A0470094801C114B26
:101A00007B4401933146029A984704AE2027304622
:101A1000394602F0B7FA2846A047083031463A4620
:101A2000019CA0470CAE039F377028460099884759
:101A3000401C31463A46A0470FB0F0BD8CD900009B
:101A4000095F0000D9920000F8B5441C0778002611
:101A50000096BE420FD2012500222046294600F002
:101A600031FC80B20649884208D00649884204D039
:101A7000761C241DEDE7009D00E002252846F8BDF8
:101A80001DB100001EB10000F0B59BB0AE4A9778C2
:101A9000802038436B210C02802800D026E1167983
:101AA000D578002F04D1022D02D3802D00D01DE166
:101AB000D520C40109F068F9AA2810D10C960FAE00
:101AC00030460BF0D7FDB08500040AD00FA80021E6
:101AD0008185199809F0C6F96F200402F6E0FE3CF2
:101AE00004E10FA809F0BEF91990002F964E16D008
:101AF0006321C900954D695A002900D1E4E0C7224D
:101B00009200AA5A8A4200D0DEE091482818FFF7D6
:101B10009BFF002862D000F03BF90446DEE0012D77
:101B20002AD8B1208000894F3818002158220B9103
:101B300004F0A1FF70790A2800D9C4E08648006843
:101B4000017A864AB954807A8549785480483E465D
:101B500038187D4F791D292204F07DFF78798000A7
:101B6000401C421DB95C002D45D001231A43BA5CCC
:101B70000902891807223FE06321CB00734DE95A1F
:101B8000C7229600AA5B0C9FD2198A4200D99BE01B
:101B9000002400940194284628306B494A1D029283
:101BA000214604933B4600F0E1F80094019425207F
:101BB000C00028182146029A3B4600F0D7F8A85BDF
:101BC000C019A853604A14700499695A80B28842B7
:101BD0000DD16048022129525470B1E0AF2080003D
:101BE000295C10220A432A54092004037BE0594847
:101BF00001212952A4E006226323DB00F1520029CF
:101C000061D080180790C72080000A930B9F09902D
:101C1000375235462835284602F0C0F92520C00045
:101C20003018069002F0BAF94B4E30680D300BF0C8
:101C30004DFD11300EAA1070009701970123494EF7
:101C40007E440396284639460893B04742480668C2
:101C50000D3630460BF03AFD0346009701972846B3
:101C600039463246039EB047009701973E4A7A4470
:101C700011230595284639460A9DB047334E705BBF
:101C8000FC2803D80DA90870012306E00DA94870AF
:101C9000FD220A70000A887003230C9F059D0B9992
:101CA000009101910DAA284600F060F80798381AB3
:101CB000401D0EA90870099AB15AC3B2C8180A9FEC
:101CC000F15B884215D9199809F0CCF8B120800051
:101CD0001E4908180021582204F0CDFE09F0B8F87A
:101CE0000FA9884202D1199809F0BCF820461BB010
:101CF000F0BD0B9F009701973446134E0799761855
:101D000028463946324600F031F80EAD2B78009760
:101D1000019706983946324600F028F80A4B099A8E
:101D2000A05A29784018A0521F700A99615A80B2AF
:101D30008842089A01D15F700222064803490A527C
:101D400009200403CAE7C046E8070020000200207B
:101D5000E7020000BA0200008C060020C502000065
:101D6000C602000029010000ACBB00001CB50446FF
:101D70000598019004980090204602F0C1F80028D0
:101D800003D1204602F0B6F81CBD04F047FE000067
:101D9000F0B5A1B03548364F00243C5203AD28467B
:101DA0000BF068FCA885000407D003A884850D9873
:101DB00009F058F86F2004023FE003A809F052F838
:101DC0000D9020200290019019AE0096284F2837E0
:101DD00001253846294632462346FFF7C7FF3846D5
:101DE00002F0DCF80096029B019338462946324601
:101DF0001D46FFF7BBFF00941E481D4908180FAF92
:101E0000214622463B4600F008FB1C48784405F07A
:101E100077FD807964218007C00F00910190164CF6
:101E20003846134F31462A46234600F007FC6078B7
:101E3000801C0E4978520920040309F009F803A90F
:101E4000884202D10D9809F00DF8B12080003818B1
:101E50000021582204F00FFE03A8808D002802D133
:101E6000204621B0F0BD04F0D9FDC046BA02000002
:101E700000020020E7020000E807002070D5000003
:101E800070B5F1208000094D285C002801D0084C75
:101E900009E0AF208600FFF7F7FD0446A85DC00605
:101EA00001D504F04FFC204670BDC0460002002062
:101EB00082690000B0B5002803D0FFF769FF010A6E
:101EC00001E069218520074A074B9C5A074D295597
:101ED000A11C9952621C92B2A85489B2202004F02D
:101EE000FDFFB0BDBA02000000020020E80700209C
:101EF0006D2000027047F0B591B00190012421409F
:101F000001D0062000E00820029000202A2804D0FA
:101F100006AD00232B52801CF8E70029009201D067
:101F20000F2000E00D2003901325002108293ED04A
:101F300001980491405C05900023082B34D0EEB248
:101F4000710006A840180722D71A2246BA40059FFA
:101F50003A40142E07D80788042F00D9FF1C0780A9
:101F6000801C761CF5E706AE705A072800D96D1E56
:101F7000E8B24100711813280CD84E88072E264667
:101F800000D800260F887F073F0FBE190E80891CDE
:101F9000401CF0E7501E824110984007000F801847
:101FA00006A908855B1CC8E70499491CBEE7002107
:101FB00008460C46009DC3B2039A9A420FD95A00B4
:101FC00006AB9A5A002901D1002A06D0E1B230327C
:101FD0006A54641C0121401CEDE70021FBE7210647
:101FE00002D130212970012400210A46CDB2029E7F
:101FF000AE4220D90D46EEB2029FB7421BD9F61869
:10200000760006AFBE5B6D1C002EF4D0002A01D016
:10201000009F05E0E2B22E25009FBD54641C012202
:10202000C5B26D0006AE755D3035E6B2BD55491CD2
:10203000641C401CDAE7E0B211B0F0BD80B50B21A2
:102040008901044A525804490968896CFFF753FF13
:1020500080BDC046000200208C060020FEB579201D
:10206000C2002B4D00262846314604F004FD2846C8
:10207000314600F011FB7520C00001242C54254886
:102080002E52F12080002E54234828180822314671
:1020900004F0F1FC21482E5421482E542148784464
:1020A00005F02EFC4078012801D0FFF789FC1E487E
:1020B000784405F025FC4078002807D01B48784478
:1020C00005F01EFC808800F0ECFA02E0FF2000F032
:1020D0003BF81748784405F013FC0078002800D03E
:1020E000FEBD02AD2C7001AE3470124F7F443846F5
:1020F00005F006FC29303146224608F0EFFD38464F
:1021000005F0FEFB2946224608F0E8FDFEBDC0466C
:10211000000200209A030000A9030000B1030000A0
:10212000A7020000DED20000CCD20000BED2000028
:10213000A8D2000090D200004021415C01220A4058
:10214000911C0170704700001CB5014601AC20468F
:1021500000F0A2FA0448784405F0D2FB001D0222E8
:10216000214608F0BBFD1CBD26D20000B0B50446D8
:1021700015480068806B002810D014497944032268
:10218000204604F074FC0125002819D01049794438
:102190000322204604F06BFC002811D00D4979443D
:1021A0000422204604F063FC002808D118340A49B0
:1021B00079440222204604F05AFC002802D000256F
:1021C0002846B0BD0125FBE78C06002095B600002F
:1021D00086B6000069B600005BB60000B0B50446E4
:1021E00009497944032204F042FC002809D117343C
:1021F00006497944012520462A4604F038FC002887
:1022000000D000252846B0BD2BB600001EB6000049
:10221000B0B504460C480068806B002810D00B490C
:1022200079440322204604F022FC0125002808D02E
:10223000074979440322204604F019FC002800D005
:1022400000252846B0BDC0468C060020F1B5000030
:10225000E2B5000041786A3948424841704780B58C
:10226000C12200F001F880BDF8B515460F460646BC
:10227000FFF77CFF0024002810D13046FFF7AEFFA7
:1022800000280BD170786A2808D03078EA2805D861
:10229000B84203D2305C401B444244412046F8BD62
:1022A00080B5C222FFF7E0FF80BDB0B50023002A51
:1022B00006D0521E94B2055D0C5D6C402343F6E7D8
:1022C000D8B2B0BDF0B5002902D00723DC4300E04E
:1022D0000824002900D0182100252B46042D0ED0FB
:1022E000465D002D374601D17F273740002A00D0B8
:1022F0003E46C9B28E40F31809196D1CEEE7184628
:10230000F0BD01700A0EC2700A0C8270090A417099
:102310007047F0B5A1B0144601AD20262A463346D9
:1023200001F0F4FD09AF384601F020FE14200090C2
:10233000384629463246234600F002F821B0F0BD67
:10234000BCB515460A460446069800930190012143
:1023500020462B4601F0D4FD002803D1204601F091
:10236000C9FDBCBD04F05AFB70B588B014466D467B
:1023700020262A46334601F0C9FD284631462A4622
:10238000334601F0C3FD04222046294604F063FBD6
:1023900008B070BDF0B58BB0019315460346109C94
:1023A000FF2C01D8012600E002261198002806D053
:1023B0003246143202A8194604F04DFB0CE002A884
:1023C00082191846FFF7A5FF200A03D002A94C7016
:1023D000087001E002A80470374602ACA21914325A
:1023E000143620463146FFF7BFFF183720463946DE
:1023F0002A46019BFDF7C0FE002802D480B20BB034
:10240000F0BD012004F00AFB491E002A04D08B5CB9
:102410000370401C521EF8E77047F0B58FB004936C
:10242000039107780B2F36D2154614990191461C5B
:1024300005AC0297002F08D0012100223046FFF79B
:1024400041FF01C47F1E361DF4E704F081FE0095B4
:10245000212505AE28463146029A334608F062FC33
:10246000202228463146049C234601F031FD039882
:10247000002807D0212001230199224601F022FDE6
:10248000002809D104F064FE05A80021202204F0F0
:10249000F2FA0FB0F0BD022004F0C0FAF0B58BB034
:1024A000009104780B2C36D2451C01AF2646002E35
:1024B00008D0012100222846FFF704FF01C7761E3D
:1024C0002D1DF4E70120052C23D1C107019A4A40B4
:1024D0002C2A03D0542A01D0312A1AD10F4A12686B
:1024E0009388002B06D0029C4C409C4202D0D2889C
:1024F00094420ED16431039A8A420ADC0499009A0C
:10250000914206D106480599814201D8002000E099
:1025100001200BB0F0BD022004F080FA8C060020F0
:1025200050C30000F0B58DB00C461B4909688A887D
:10253000002A13D00678022E27D3029201910B2E87
:1025400026D2451C03AF002E0AD0012100222846C6
:10255000FFF7B8FE01C7761E2D1DF4E7012414E035
:102560000120C107039A4A402C2A03D0542A01D0E3
:10257000312A0AD1049A4A4002998A42044604D078
:102580000198C088101A4442444120460DB0F0BD65
:10259000022004F043FAC0468C060020F0B587B054
:1025A0000E46017804910B2942D22021317002920B
:1025B000911E0191431C0124002503960498854235
:1025C0002DD20595012600270693184631463A4636
:1025D000FFF778FE0546F007039E2B46834330192C
:1025E000029A111B1446144A7A4404F0F3FE304652
:1025F00021460BF098F8C1B2019A914215DA002DEC
:1026000002D527227254401C069B059D1B1DC1B29A
:102610002F227254401CC4B237556D1CCEE7601E89
:1026200000213154C0B207B0F0BD072004F0F6F924
:10263000022004F0F3F9C0462FB20000F0B587B0D5
:102640001C4617460D46064604F082FD0C9806907F
:1026500005A8039006A80290019400970D98002801
:1026600001D00C4900E00A49032230462B4601F014
:102670001DFC00280AD10598C00703D0207801214D
:102680000143217004F064FD07B0F0BD04F0C6F909
:102690000104000001060000CA4312025118018023
:1026A000704780B5FF218143000A814201D008F0C4
:1026B0000BFB80BD80B55521C900044A515C8142A5
:1026C00000D380BD012004F0A9F9C046000200201B
:1026D00070B5002407235D1C0CD2D55CCE5CE4B23F
:1026E00034196419C454FF2C01D8002400E00124DB
:1026F0005B1EF0E7E0B270BDF8B50092002407233E
:102700005D1C15D2009AD55CCE5C0022270605D050
:10271000AE4201D9761E01E0FF362246741BC45436
:10272000B4B2AC4201D3144600E001245B1EE7E7DB
:10273000E0B2F8BD7CB50446652086000F4DA85D6B
:10274000C1070BD0AB2080002A58002100910191D5
:1027500028462830234600F013F8A85D80070BD5E3
:10276000AB2080002A580021009101912520C00053
:102770002818234600F004F87CBDC0460002002063
:102780001CB504460598019004980090204601F07D
:10279000B7FB002803D1204601F0ACFB1CBD04F0C0
:1027A0003DF9000010B50446FFF7C4FFAB208000E0
:1027B00004490A5812190A505520C0000A5C121B1D
:1027C0000A5410BD00020020F8B501242046FFF78E
:1027D00071FFAB208600154FB8590578FC2D1DD927
:1027E000FE2D0ED0FD2D1ED10120FFF7DBFF0224B0
:1027F0002046FFF75FFFB85901784078000245187E
:102800000CE00120FFF7CEFF04242046FFF752FF23
:10281000B85900210A46FFF755FD05462046FFF747
:10282000C1FF2846F8BD022004F0F8F8000200209D
:10283000F0B5B7B00646B248784405F061F884793F
:102840002BAD28460AF016FFA88585B2002D01D0D1
:1028500000F046FC2007C40F2BA808F003FB3590BE
:10286000601E1394844112941DA8011D10912830FC
:1028700011901DA80C300F90F84FF94D1496387D2B
:10288000C0B2032820D004282FD0062837D15520E5
:10289000C400385D002801D100F014FC2E46042548
:1028A0002846FFF707FF2846FFF77CFF385D002822
:1028B00020D06520840000203855FFF785FF0121D6
:1028C00039553861072016E0022E00D18BE05520E3
:1028D000C000385C002800D1F4E3FFF775FF042145
:1028E00039750021B860F96000E0B868002847D168
:1028F000062002E008203546149E3875C0E70146E0
:102900000839032900D2DDE3072800D1E4E00128DB
:1029100000D1DFE0022800D163E3052855D000286C
:10292000ADD10026BE60FE603E61384615300822FB
:10293000314604F0A0F8CB48385C002800D1E1E033
:10294000C948385C002800D1E0E01DA8C749794497
:10295000102204F080F8C348385C0228C44906D12C
:10296000C4480068006C0028C34900D001460F9895
:10297000FFF7C7FC384628301DA900F0CDFBC5E0A5
:102980005520C000385C002800D19BE30820FFF7E9
:1029900091FE012E11D1AD2080003858F968814296
:1029A0000BD1AB208000395838461530082204F08E
:1029B00052F82B200001012139540820FFF7F2FEC4
:1029C000FFF702FF0521397538615520C000385CDA
:1029D000002800D176E33C69002C6CD0844200D200
:1029E00025E3044623E3A048395CA9208200B85CB3
:1029F00000284AD0002948D10B929A483C5C2025F7
:102A000001951DAA00923320C0003818012100262C
:102A100008903346FFF7B4FE002C1AD1089C2046DC
:102A200001F0BCFA01951DAA00920126204631460C
:102A30002B46FFF7A5FE019515AA00923C462834C7
:102A4000002320463146FFF79BFE204601F0A6FA00
:102A50002E46019515AC00943846283001212246B7
:102A60003346FFF78DFE1DA908982A4603F0F3FFB1
:102A70003720C000381821462A4603F0ECFF7A4878
:102A8000395C0B98385C149E754D002815D00029D0
:102A900013D07448385C00280AD1002100910191BC
:102AA0003B20C0003A18384628302023FFF768FE44
:102AB0000A203875E3E60420FBE2092139756949EB
:102AC000795C002913D0384628306C49794400F0ED
:102AD00023FBD4E6B86855E13C69002C00D1B9E08D
:102AE0005520C000385C002800D077E7EAE20028D3
:102AF00000D1C4E63846283001F050FABFE6C0469F
:102B000044CB00003846283001F048FA2520C000A8
:102B10003D18284601F042FAA9208000385C0028C0
:102B200000D1E2E0652080003E544E483C5C4E48B7
:102B3000385C002800D1A9E0009601965320C0001F
:102B40003A183846283004230D903146FFF718FE16
:102B5000002C4B4878440A9000D1A7E000960196DB
:102B6000ED2080003A1804230D9C204631460A9D32
:102B7000A847009601963320C0003A1820230393FB
:102B800020463146A847009601963720C0003A18E3
:102B900020463146039C2346A847009601963B20D9
:102BA000C0003A180D9831462346A8470096019672
:102BB000344A7A440D9831462346A8472948385C60
:102BC000022813D1009601962F4D7D4420230293B5
:102BD0000D9C204631462A46FFF7D2FD009601960D
:102BE000204631462A46029BFFF7CAFD0096019611
:102BF000EF2080003A1804250D9C204631462B46D4
:102C0000FFF7BEFD009601967720C0003A182046D7
:102C100031462B46FFF7B4FD1248385C02280ED12E
:102C20001DAD082428463146224603F024FF0096B5
:102C300001960D9831462A462346FFF7A1FD0096DE
:102C400001960F2080013A1804230D983146FFF7B2
:102C500097FD4AE00820387511E6C04600020020C2
:102C6000C8050020B2030000A60200000DAF00005E
:102C7000191BA85B8C060020BB09B8767FAD00004D
:102C800029FCFFFFB9AC0000A1AC00003320C0005C
:102C90003818002C27D0F549794400F03DFA384621
:102CA0002830F349794400F037FA1EE00096019687
:102CB0003320C0003A180692202304930D98314621
:102CC0000A9CA047009601963720C0003A180D983C
:102CD0003146049BA0470096019660232846314662
:102CE000069AA04701E001F059F904252846FFF7AC
:102CF000E1FCAB20840039595320C00007903818FC
:102D00002A4603F0A8FE2846FFF74CFDFD48385C34
:102D100000280DD004252846FFF7CCFC3959ED20BA
:102D2000800038182A4603F096FE2846FFF73AFD41
:102D3000F54800684821415C89070FD5007B0228CF
:102D400005D004280AD10798385C012806D8042544
:102D50002846FFF7AFFC2846FFF724FDFFF734FDB8
:102D6000B86014990229E94D09D1F1218900795CF3
:102D7000002904D06968002900D168602E60012113
:102D80003975149E002817D05520C400385D0028DE
:102D900000D197E1022E12D00124012E00D00EE1C5
:102DA0000C942C4624252846FFF784FC284625460B
:102DB0000C9CFFF7F7FC02E1032038755FE5022069
:102DC000FFF778FCAB2080000E903858017802297C
:102DD00034D001293AD0002900D08CE1A92080000C
:102DE000385C002800D086E1C94D7D44284604F0B7
:102DF00087FD8088FFF755FC284604F081FD808818
:102E0000C0B2042808D0022806D0012800D072E100
:102E10001398002800D16EE10E997858401C785024
:102E2000385D401E385524252846FFF743FC2846C8
:102E3000FFF7B8FC0120B8770024B5E0A920800096
:102E4000385C002800D156E100203AE0467835464B
:102E5000083DE8B2302800D94DE1B01C0990C0B25D
:102E6000FFF728FCAB48784404F04AFD0E997958E6
:102E700001961DAA059200928A1C083020212B463B
:102E800001F04AF80E9838588019811F08220598D9
:102E9000FFF70BFA002800D02DE1A92081007A5C11
:102EA0000E9BF858002A31D03230027A0270385D19
:102EB0000D383855F858401DF850795C002925D058
:102EC00001200C9001263046FFF76CFC2420FFF710
:102ED000F1FB8B48385C002840D0652084003E55CB
:102EE0002420FFF75FFC0020385508252846FFF70F
:102EF000E1FB0E983958A720800038182A4603F0C5
:102F0000AAFD2846FFF74EFC3E554CE0811C1DAE45
:102F100030462A4603F09FFD3078322800D0EAE0A0
:102F20000E9EBD591098B8512420FFF703FC099953
:102F30006818B851385D401A385515AD0822284632
:102F40001199FFF761FA3846153001462A46FFF716
:102F5000BFFB002800D0CEE0012425E00E9C3A59AA
:102F60000021009101913320C000381824252B4600
:102F7000FFF706FC2846FFF715FC08252846FFF753
:102F800099FB395915AE30462A46FFF73DFA3846C7
:102F9000153001463246FFF79BFB002800D0AAE01F
:102FA0000820FFF7FFFB0C9CA9208000385C00285C
:102FB000149E03D16520800001213954534DFFF741
:102FC00003FC38611399002909D1002807D0022E8B
:102FD00005D1A9208000385C204300D18BE002207D
:102FE00038755520C400385D00286BD03869012839
:102FF00014D1AB20800038580078AE3841424141AE
:103000000122129B5A40114202D141424141F977BB
:103010000120FFF7C7FB3869401E386100280DD03A
:10302000395D441E8C4200D30C46002C4AD0E0B2DD
:10303000FFF7B8FB3869001B386120E4022E1DD170
:10304000A9208000385C002814D02D48385C002866
:1030500014D0002100910191A72080003A18384631
:1030600028300823FFF78CFB08E0C04693AB000034
:1030700097AB000065208000032139540420FFF73E
:1030800019FBA9208000385C00280ED01C48385C51
:1030900000280AD1AB2080003A580021009101910C
:1030A000384628300423FFF76BFB0420FFF77AFB38
:1030B00001203875B868401EB860F868401CF86098
:1030C000FFF7DDFB07F0C4FE2BA9884202D135983B
:1030D00007F0C8FE2BA8808D00280AD137B0F0BDBC
:1030E0002BA800248485359807F0BCFE034804759E
:1030F000284603F093FC012003F090FC000200201E
:10310000A6020000B20300008C060020C8050020C3
:1031100092C5000016C50000E0B510220091019292
:10312000012109020022134600F0BAFE002800D156
:103130008CBD03F073FC42688068101A884201D28B
:10314000002070470120704702468368591800200C
:10315000994204D35368994201D891600120704785
:10316000024643688068834202D10020087070479D
:103170001368185C08709368591C0120994203D3A6
:103180005368994200D891607047B0B50D46044627
:103190004068A168401A032805D92068002A05D094
:1031A00005F02DFA04E000202860B0BD05F014FA07
:1031B0002860A1680420C2430120914204D8091D5F
:1031C0006268914200D8A160B0BDB0B50D4604461A
:1031D00000686168A2688018891A2A4609F0F6FB1F
:1031E000002809D4A26811180120914203D3626813
:1031F000914200D8A160B0BD002028606860B0BDD9
:10320000B0B515460A46044600686168A368C01850
:10321000C91A2B46FDF728F800280AD0A800A26892
:1032200011180120914203D36268914200D8A16035
:10323000B0BD0020B0BDB0B51546044642688068F8
:10324000121AAA4201D20020B0BD22681218084604
:1032500011462A460AF0CDF9A2685119012091427F
:1032600003D36268914200D8A160B0BDB0B51546E5
:10327000044642688068121AAA4201D20020B0BDFA
:10328000226810182A460AF0B4F9A26851190120E0
:10329000914203D36268914200D8A160B0BDB0B53D
:1032A000002A08D0826803689C180323234004D0B6
:1032B0000424E31A01E08268002359184468A51A1F
:1032C0008D4201D2002108E0551801688918C918FB
:1032D000954202D3A54200D885600846B0BD0000E3
:1032E000F8B50346CA06D0170090174A02400C07EB
:1032F000E617164C34405D01654055408A06D417E8
:10330000134A22406A404D06ED17124828405040AB
:103310000A06D717104A3A40424098203040DB0E48
:103320004901C918C9B241407920009B1840484062
:10333000F32121404140AE20284048401E21394021
:1033400041401046F8BDC046E2996DB7618EBCF2AF
:10335000C4B35F3EA8E2AB2E70E4434FF8B5144609
:103360000D460646002101203778FFF7B9FF002FF0
:103370000BD01F2217407840761CF5E7FFF7B0FF0F
:10338000024628785040641E6D1C002CF6D108249B
:10339000002C03D0FFF7A4FF641EF9E70122504080
:1033A000F8BD0000F8B514460A4601460A487844BC
:1033B000FFF7D4FF05460E462827002F0AD07F1FAF
:1033C000284631463A4609F0BBFF1F2101402170D3
:1033D000641CF2E7F8BDC0463AA50000F0B599B00C
:1033E0000024179416941470142962D115460646C9
:1033F0001E9800240028214602D0012859D1082116
:1034000001930CAF3970781C1422314603F023FB72
:10341000152220462146002A11D0521E3B78000278
:10342000C0180831052908DB491F0346CB401F2679
:103430001E4002AB1E55641CF4E77F1CEBE700291D
:1034400007D00522511A88401F21014002A80155CA
:10345000641C02AF16AA38462146FFF7A3FF3A784C
:10346000002017497944019F84420AD0202A1ED2A5
:10347000431CBB421BD802AE365C8E5D2E541846F0
:10348000F2E7621C009208340023EF18082B13D0D7
:1034900016AE3678202E0AD2009AD618019A964295
:1034A00005D816AEF65C8E5D3E545B1CEDE700243D
:1034B0002C70204619B0F0BD00213954F9E7C04600
:1034C00090A40000F0B5B7B00393164605910746E7
:1034D00000253C98069502950492AE424AD00446D7
:1034E0002FA800903846059932462B4601F022FA63
:1034F00000283CD42FA907AA50233E46384601F0A5
:1035000082FB002833D40746002D1AD0069ABA420F
:1035100000D33A46002A0BD01BA807A90AF078F876
:10352000421E01469141069ABA4205D3002204E0A8
:103530000698B84205D31AE00122002817DC0A4396
:1035400015D01BA807A93A460AF04FF82046002CD0
:1035500008D000203190309707A82F902FA903980A
:10356000A04720466D1C06973746049EB5E700200D
:10357000C04300E0029837B0F0BDB0B590B01D4632
:10358000002406942223059307AB0493039404AB11
:10359000029301924A1E91410091149A159B29466B
:1035A00004F078FC00280AD4179A904208D11699A2
:1035B00007A80AF02DF8002802D1012400E0E44316
:1035C000204610B0B0BDF0B597B01D4616460F4668
:1035D00002900FA820210AF003F803AC20460AF05D
:1035E00049F8A085000407D003A8002484850D981D
:1035F00007F038FCE44315E003A807F033FC0D9016
:10360000009721240FAF204631462A463B4607F05B
:1036100089FB202220463946029B00F059FC0028F5
:1036200013D1002407F014FC03A9884202D10D989D
:1036300007F018FC0FA8202109F0E6FF03A8808DF1
:10364000002802D1204617B0F0BD03F0E7F90000D2
:10365000F0B5CBB005460220C443002927D4287911
:10366000FF2826D0069404922A462D322AAC0791D0
:103670002126204605921146324609F0B6FF204623
:103680003146079A09F0A8FD402601963BAF009706
:1036900028460D3020212523224600F043FC2C49EA
:1036A0007944384600F056F8002806D4069CA41C3D
:1036B00000E0641C20464BB0F0BD039702963BA887
:1036C00019AE314600F052F808AF0598394600F0BF
:1036D0006DF82AA831463A4600F0B2F80028069C58
:1036E000E8D0039F203768782978EA78AB78049E81
:1036F000B370F270317070702879401C3071059889
:1037000000F0B3F80246701D0024214609F064FD64
:10371000304609302146079A09F05EFD30460D30EB
:103720002022394609F061FF2AA800780428C1D177
:103730002AA80299415C01220A40911C2D22B15411
:10374000411C2D36701C202209F04FFFB2E7C04605
:1037500075A20000E0B5202201AB00F0EFFB0028CD
:1037600001D101988CBD03F059F90000BCB50C469D
:1037700005460D4979444122204609F036FF2120B3
:10378000202321462A4600F0A9FB002809D1212048
:1037900001A907F0AFFA002803D101984000401CAE
:1037A000BCBD03F03BF9C0460CA20000F0B58BB0E5
:1037B0000D460478FE2121400022022935D10192D4
:1037C0006F1C411C20220092384609F012FF0AAA01
:1037D000032010702E46213601233046394600F072
:1037E00079F802AF1F21384609F0FAFE0720F87772
:1037F000104B7B44304631463A4600F07BF80E4A87
:103800007A4430463146009B00F064F84020285C42
:103810006040C00705D0094979443046324600F07F
:1038200073F804202870019A00E0D24310460BB0D0
:10383000F0BDC04643A1000055A100001DA100003D
:10384000E0B513460A460146212000F035FB00286A
:1038500009D1212001A907F04DFA002803D10198D0
:103860004000401C8CBD03F0D9F810B586B0212172
:1038700001AC224600F01EF80021204604F0ACFE08
:1038800006B010BDF8B515460E460746084C204652
:1038900000F06CFB20463946324600F06DFB2046B6
:1038A000294600F05DFB6C21204609F0ADFEF8BD15
:1038B0000014002070B588B014466D4620262A46B4
:1038C000334600F023FB284631462246FFF7DAFF55
:1038D00008B070BDBCB52024054D7D440095019411
:1038E00000F032FB002800D1BCBD03F097F8C046C1
:1038F0005BA000001CB52024009400F019FB0028F8
:1039000000D11CBD03F08AF880B5202300F022FB13
:103910000146DF3101D0002800D180BD03F07EF8E0
:1039200070B588B014466D4620262A46334600F00E
:10393000EDFA284631462A46334600F0E7FA009869
:103940002070010EE170010CA170000A607008B0D7
:1039500070BDF0B5C3B01D4600920E46074620A8C4
:10396000282109F03DFE01AC204609F083FEA08528
:10397000000438D101A807F075FA2AAC042121709F
:103980000B90413420A821463A463346FFF71BFEF0
:10399000002D09D0202628462146324609F025FE72
:1039A0002046314609F030FE21200DA920AA01252C
:1039B0002B4600F087FA00282CD12AAE701C0DA9E6
:1039C00009314024224609F010FE307804280AD13B
:1039D0002AA9085D2840801C009A1070501C491CC0
:1039E000202209F002FE07F033FA01A9884202D131
:1039F0000B9807F037FA2AA84130202109F004FE7D
:103A000020A8282109F000FE01A8808D002801D1FE
:103A100043B0F0BD03F002F810B58AB009A86C46B7
:103A2000002122460B46FFF794FF2046FFF71DFFBB
:103A30000AB010BD70B58CB015460C46014604AEF8
:103A40003046224609F0D1FD0020009501900290F9
:103A50000390022021213246234607F073F90CB06F
:103A600070BD0000F0B59BB005930D460029049091
:103A700011D007466E1EF1B206AC00230192224619
:103A8000FFF767FF2046FFF7F0FE019A0290B000B3
:103A90003858039002E000200390029006AC002703
:103AA000144E7E4420463946B0472571601D394684
:103AB000029AB047204609303946039AB047224659
:103AC0002D3223460D3304982946FFF742FF224644
:103AD0004E324E212046FFF723FF5221712320460C
:103AE000059C2246FCF748FB012800DB27541BB04D
:103AF000F0BDC04633970000F0B589B00193009245
:103B00000A460646FF2903D802A8027001270DE0E5
:103B1000100C06D192B202A8002109F058FB02272E
:103B200004E002A8002109F057FB042702ACE519C4
:103B300014222846314609F058FD1435394614310F
:103B400020462A46FFF7ECFE183720463946009AF1
:103B5000019BFCF711FB09B0F0BDF0B5A7B00593D0
:103B600006920C4607461BA8282109F039FD13A828
:103B70002026314609F034FD07AD284609F07AFDCC
:103B8000A885000408D007A800258585119807F0AE
:103B900069F901262C461EE007A807F063F9119089
:103BA000E3B21BAC13A920463A46FFF70CFD4820B0
:103BB000269025A8039026A80290059801900096CB
:103BC000032251022046069B00F070F900281ED106
:103BD000269C259D002607F03BF907A9884202D1C3
:103BE000119807F03FF91BA8282109F00DFD07A83F
:103BF000808D00280BD1002E02D00020C44303E0AA
:103C00002C98002800D00560204627B0F0BD02F0B7
:103C100005FF0000F0B589B015460E46044600F0D9
:103C2000BDF90C4F7F44204631462A46B84701ADC6
:103C30002046294600F019F8204600F0AFF920266A
:103C4000204629463246B847204629463246B847DC
:103C500009B0F0BD31000000E0B513460A4600216E
:103C60000091019100F00AF98CBDE0B5202200918D
:103C7000019201210022134600F000F98CBD0000E2
:103C8000F0B5BBB014460E4607462AAD294600F0F3
:103C90007DF8394979442846FFF75CFD0021CA4385
:103CA000002835D506920191029603943AAA05920E
:103CB00003201070394608AE771C012307932F4D5F
:103CC0007D4438460491A84719AC1F21204609F0CD
:103CD00087FC0720E0772A4B7B443846394622464A
:103CE000FFF708FE2136274A7A442023304639461A
:103CF000A8470220059A107032AC20463146079B37
:103D0000A84720463946FFF725FD002803D0069A2C
:103D100010463BB0F0BD049C402108A80591405CD2
:103D2000C00705D01849794430463246FFF7ECFD0C
:103D300008A80421017020223846214609F055FCCC
:103D40002AA819A9FFF712FD0028E0D019A808AA8F
:103D50000146FFF775FD0028069AD9D019A80599E4
:103D6000415C079A1140029A1170411C202203986D
:103D700009F03BFC019ACBE7819C000011FCFFFF9E
:103D80005D9C00006D9C00000F9C000070B59CB015
:103D90000C46064601AD284600F000F90849794472
:103DA00008222846FFF736FF202228463146FFF733
:103DB00053FF28462146FFF758FF1CB070BDC04690
:103DC000D79B0000B0B5A6B0044609AD284609F05F
:103DD00051FCA88500040FD009A8002484851398FD
:103DE00007F040F8E44307F033F809A9884228D1E6
:103DF000139807F037F824E009A807F033F8139078
:103E000015AD20462946FFF7B1FC4020285CC007CD
:103E100005D01749794420462246FFF775FD15A8BD
:103E2000401C01AD2946FFF7B1FF124979442846ED
:103E3000FFF790FC00280FD4139807F013F8002028
:103E4000C44315A8412109F0DFFB09A8808D002893
:103E50000BD1204626B0B0BD01AA074B7B442046BB
:103E60002146FFF747FD0024BDE702F0D7FDC0461D
:103E7000019B0000E99A0000B99A00001CB50446B5
:103E80000598019004980090204600F039F8002829
:103E900003D1204600F02EF81CBD02F0BFFD00004B
:103EA00003B4014889E000000800000003B40148A1
:103EB00083E000001500000003B401487DE000002D
:103EC0001700000003B4014877E000001B00000069
:103ED00003B4014871E000001C00000003B4014875
:103EE0006BE000001E00000003B4014865E0000024
:103EF0001F00000003B401485FE000002F00000035
:103F000003B4014859E000003200000003B4014846
:103F100053E000003300000003B401484DE000000E
:103F20003D00000003B4014847E0000040000000ED
:103F300003B4014841E000004500000003B401481B
:103F40003BE000004700000003B4014835E00000FA
:103F50004F00000003B401482FE0000051000000B2
:103F600003B4014829E000005500000003B40148F3
:103F700023E000005600000003B401481DE00000EB
:103F80005700000003B4014817E00000580000008B
:103F900003B4014811E000005E00000003B40148D2
:103FA0000BE000005F00000003B4014805E00000E2
:103FB0006000000003B40248FFE702490847000020
:103FC000710000000100120000487047001400203A
:103FD000FEB5029301920D460446099EB3683179FD
:103FE000304A0027D760916053602F49CF800F710E
:103FF000089B0B600F722F4878442F4B7B44136251
:104000002E4B7B44D3612E4B7B4493612D4B7B44E1
:104010002D49794450629162D3622C4979445161AF
:104020002B49794411613178F8290AD17178012935
:1040300007D1B178002902D1F17800292AD01B4894
:104040001AE001981060029909F0DEFA3846A84299
:104050000BDA317822798A4204D1717862798A4206
:104060000DD001270834401CF1E7F80702D06D207D
:10407000000201E03720400201F0A4FEFEBD2068EE
:1040800003F03EFC044601F055FB0648A04700F053
:1040900095F8FEBD1068002802D040680028F6D1CF
:1040A0000348E9E74006002070060020866A000009
:1040B00007B0000091010000E9000000DB000000F3
:1040C000C9000000FB000000E300000085010000C3
:1040D0006F010000014909684860704740060020F0
:1040E00080B501F003FE80BD80B50249C88001F0B3
:1040F00029FE80BD7006002010B5034B1C6862606D
:104100000C601960486010BD40060020FEB50546F1
:10411000002402940194009401F0F4FA174F3988B6
:10412000204602F0DBFE064601F0FCFA144844800B
:104130003C801448C480684613493246FBF786FF2A
:1041400000280DD068460178F8290ED169464978D3
:1041500001290AD1007902996960A860EC600BE03E
:10416000296AD520C001C01D02E0296AD520C001FE
:104170008847686A8047E4432046FEBD80060020E9
:10418000EC08002070060020E807002080B501F050
:1041900007FE80BD02480121017201717047C046CF
:1041A0007006002080B504480021017101F0C2FAB8
:1041B00000F004F880BDC04670060020B0B5174C72
:1041C0002068002829D0164D2879002823D1E888B6
:1041D000002815D120684168002909D000224260DA
:1041E0002046884707204003E9888142ECD112E04D
:1041F0000068002801D02060E6E70A4801F0E2FDEF
:104200002868002807D00849097801220A40297A3D
:10421000114300D0804701F09DFAB0BD4006002058
:104220007006002007B000008A06002080B5034811
:10423000026803480021904780BDC0467C060020EC
:104240004006002080B503480268034801219047DA
:1042500080BDC0467C0600204006002080B5034893
:10426000026803480121904780BDC0467C060020BB
:104270004006002080B503480268034800219047AB
:1042800080BDC0467C0600204006002080B5034863
:10429000026803480121904780BDC0467C0600208B
:1042A0004006002080B5034802680348012190477A
:1042B00080BDC0467C06002040060020B0B51D46EB
:1042C00014460C48492209F01AFA4930722229464C
:1042D00009F015FA084804990160002C02D1084938
:1042E000794401E0054979440020024607F09CFE2C
:1042F000B0BDC046000200207C060020829B00006A
:10430000709B0000B0B51C4615460948492209F0CB
:10431000F6F949304122294609F0F1F905480460CF
:10432000054979440020024607F07EFEB0BDC04634
:10433000000200207C060020169B0000B0B5144649
:104340000D46891C0948112209F0D9F9113016359A
:104350004A22294609F0D3F9054804600549794401
:104360000020024607F060FEB0BDC04600020020FB
:104370007C0600202A9B000010B514460D48A3229D
:1043800009F0BDF90299002902D10D4A7A4401E0F1
:104390000A4A7A44A330631C122103F01BF8064832
:1043A00003990160074979440020024607F03CFE6A
:1043B00010BDC046000200207C060020629700006D
:1043C00077970000F69A0000B0B51D4613460C46DC
:1043D0000C485B304B22194609F091F90A480560F8
:1043E000002C07D007481122214609F088F9084916
:1043F000794401E0054979440020024607F014FEA3
:10440000B0BDC046000200207C060020CA9A000011
:10441000BC9A000010B514460648112209F06FF945
:1044200005480460054979440020024607F0FCFD78
:1044300010BDC046000200207C060020AA9A0000A1
:1044400080B504480160044979440020024607F021
:10445000EBFD80BD7C060020989A00007CB51C46D0
:1044600016460B460E4D0C210F4A7A44284602F0A0
:10447000B1FF28460C304B22314609F040F9573540
:104480000095069A079B204600F012F80548089907
:104490000160064979440020024607F0C5FD7CBD55
:1044A000000200207C060020AA9600005C9A000012
:1044B000F0B589B0089317460692044609F006F94C
:1044C000064607900E9D2846214609F0F7F8202061
:1044D000A8552C463A4A002638460899334608F033
:1044E0003BFF07460D46364A334608F055FF069A0D
:1044F000101A029008988841079820180390012309
:104500000220019704952C460796089305460A2237
:1045100038462146079B08F01FFF06900591294663
:10452000681C089A531C761C0922D51B079DA541BF
:10453000069F059CE9D30791009206960398401CBC
:104540000590019C089B002B1CD00A2700252046C3
:1045500004993A4608932B4608F0FEFE064604915D
:104560003A462B4608F018FF089B201A30210143D9
:104570000398079A8018401E0170521E07925B1E16
:104580003446E0E7069C05980019029B002B13D0E7
:104590002E210170401C0B4A7A44009D294602F0EE
:1045A00019FF03980019022D08D0415D302905D16B
:1045B000002141556D1EF6E70021017009B0F0BDE4
:1045C00000E1F505879500001CB508460649049CE6
:1045D0000C6006490091FFF76BFF05497944002004
:1045E000024607F021FD1CBD7C06002000020020D1
:1045F0002C990000F0B5A1B0044606F0C5FBAA282E
:1046000047D1251D20A92846FEF7AAFD002843D042
:104610001FA92846FEF7A4FD00283DD01FA820A909
:104620000978012940D80278072A3DD219A92846DD
:10463000FEF7E6FD00282FD05A48006881881791C0
:104640000390C18818911FA90978032952D35648AD
:10465000199A024003252C2A09D0562A07D0312A5C
:1046600005D0542A03D0302A44D1104604250292A2
:104670008D4202D0AA1C8A423CD10026F24319AFD7
:10468000521C954214D0381D3F68002F0746F7D4BE
:1046900030E0216A414802E0216A4148401D8847D4
:1046A000606A804721B0F0BD216A3C48FE30F6E7E1
:1046B000AA0019AFBF186A1E521C8A4205D2381DC3
:1046C0003F68002F0746F7D514E01A9F3648074089
:1046D0003246082E07D017A88059381A4342434162
:1046E0001A43361DF5E7D00704D01B982E4A104018
:1046F000642838D920A80078002829D001250398FB
:1047000002682B4E083619A83346FFF7ABF9401C58
:1047100021D004A828497944492208F066FF1FA83F
:104720000178002904D019A804AA4923FBF7B6FD93
:1047300020A80078002811D0206980471F487844BD
:10474000009004A920462A463346FFF7B7FDA9E7A3
:10475000216A1348A3E7216A1648A0E7A16918480F
:10476000784488479EE78D420DD28A0019A8101818
:10477000083800680128BDD819A81018001F006863
:104780000A4A9042B6D8002502983028B7D11C9822
:10479000054A1040401E0228ACD2B0E782690000F2
:1047A000826A00008C060020FFFFFF7F50C30000DC
:1047B000C002002007B0000006980000830000003F
:1047C0008D00000010B50446002904D0A1690748F7
:1047D0007844884704E0216A03488847606A804734
:1047E0006069804710BDC046856900001D0000005B
:1047F000B0B50446074D0835284608F067FF014666
:10480000E26928469047216A092000038847606AC8
:104810008047B0BDC0020020F0B58BB01C240194CD
:1048200004AC009400F024FB0024E143039104282D
:1048300004DB0321014001D11F2802DD03980BB0E6
:10484000F0BD119F109D001FC117890F40188010E7
:10485000039004AE3046214603F0D1FE2860361D99
:10486000254603988542E9DA3046214603F0C7FE23
:104870003851241D6D1CF4E7F0B58BB01D24019454
:1048800003AC009400F0F4FA0027FC43052808DB91
:1048900003A9421E920704D10978002901D12028DA
:1048A00002DD20460BB0F0BD11990291109D401F12
:1048B000C117890F4018841003AE0121304603F060
:1048C0009EFE2860761D3D46A542EADA304639460E
:1048D00003F095FE0299C8513F1D6D1CF4E70000DE
:1048E00070B58CB0044606F04FFAAA2818D10BA870
:1048F00002AD002631462A463346FFF72AF82846FD
:10490000FEF7B3FF024601AD2846314608F064FCCD
:10491000E269042128469047216A0920000301E04A
:10492000216A03488847606A80470CB070BDC04662
:1049300082690000F0B597B00A9316460C46074608
:104940000FAD41202870FA69012128460791904750
:10495000FA692021069420469047002428462146E3
:1049600008963246234608F05DF80146FA69284663
:104970009047284621460A9A0994234608F052F89F
:104980000146FA6928469047396A072045032846B8
:104990008847F96A384688470921CC43002821D442
:1049A00005953D1D0FA920222846FEF744FC26460A
:1049B0000836002800D1BEE00EA92846FEF7D0FB3D
:1049C000002800D1B7E00DA92846FEF7C9FB002852
:1049D00000D1B0E00DA800780EA90978884204D96A
:1049E000E61DA8E009342046A6E041012846FEF76E
:1049F000A2FB002800D19AE002941C980FA9202263
:104A000008F0F3FD0A9808998842079C2046099B04
:104A100000D3184608990129059E00D81C46044079
:104A20000DA8007801950794C0B2191800918B4227
:104A3000099340DA0EA8002C7BD0D94300784018A7
:104A40000490F86879680818039000220A9C089E70
:104A5000022E6ED301210020B14202D2401C490037
:104A6000FAE7C0B2411E0120884001462140D5B27C
:104A7000049BAB4209D0002901D1064600E0361A5A
:104A8000002900D0241A521CE2E70029019D03D01E
:104A90000FAA0398114602E00FA80399024601F0FD
:104AA00081FF079C059E20212846FEF74DFB099BB0
:104AB0005B1C0099BBE70EA8007883423ED00CA88F
:104AC000A0210170FA6901219047396A3046884770
:104AD000F96A3846884700283AD40DA9019D28462E
:104AE000FEF73EFB0299CE1C002824D00BA92846D5
:104AF000FEF736FB00281ED00DA800780BA9097818
:104B000041432846FEF717FB002814D00BA8007875
:104B10002028099B1FD10DA8007819180EAA127819
:104B20009142059E00DC7FE70298461C03E0A61D2B
:104B300001E00298461D304617B0F0BD0FA92022B3
:104B4000069808F065FD002800D10290029EF2E769
:104B50000298061DEFE70298861CECE7F0B599B0C5
:104B60001E460391074608AD42202870681C202489
:104B700002921146224608F038FD2846213001965F
:104B80003146224608F031FDFA6941212846904716
:104B9000396A072040038847F96A38468847042164
:104BA000CE43002827D43C1D07A92046FEF7D8FA9B
:104BB000351D002820D004A92046FEF706FB00285A
:104BC0001AD007A80078012819D8002813D0049B10
:104BD00008A8009038460299039AFFF7ABFE002818
:104BE0000FD408A92022019808F012FD00283546AC
:104BF00002D1049D00E0B51C284619B0F0BDF51C9B
:104C0000FAE7751CF8E7F0B5B1B0089306920E46C6
:104C1000054630A840210170EA69012421469047E9
:104C20002FA800270770EA6921469047EA692021EA
:104C3000304605919047296A07204003079088472E
:104C4000E96A284688470921CA4300282FD40496D8
:104C50002C1D2CA920460992FEF7B7FA099E0836AA
:104C6000002826D02BA92046FEF77AFA002820D06B
:104C70002BA8017803942046FEF75DFA002818D08F
:104C80002D982C990A460243099BDE1D002A10D05C
:104C90002BAA1278002A0CD04B1E0646BE41089C57
:104CA000E31A3B46B34107D20998861D01E0093259
:104CB0001646304631B0F0BD891AB84102D2099883
:104CC000461DF6E7EC686868029010AE3046FFF7C4
:104CD00065F9029804192BA8029002783046214603
:104CE00000F070F80F9708980E9006980D900894B1
:104CF000611C029C2078421E0DA8FEF7B7FA2078AE
:104D00002C990C1A039F002C049E3CD00CA8A021C7
:104D10000170EA6901219047296A07988847E96A82
:104D200028468847002844D40BA93846FEF718FACD
:104D30000999CE1C0028BCD00AA93846FEF710FA03
:104D40000028B6D00BA800780AA909784143384654
:104D5000FEF7F1F90028ACD00AA8007801282BD181
:104D60000BA8027894422AD3E8686968091810A849
:104D700000F028F80BAE32780DA80899FEF776FA05
:104D80003078241ABFE7059F019710A805464C35D7
:104D9000009501210022134600F01DF828463146F7
:104DA0003A4608F035FC0028099E82D12C98461E10
:104DB0007FE70998061D7CE70998861C79E7099822
:104DC000461C76E7E0B513460A46002100910191A2
:104DD00000F001F88CBD1CB50446059801900498BC
:104DE00000902046FFF78CF8002803D12046FFF7FB
:104DF00081F81CBD01F012FEF0B59DB0054615A866
:104E000000902846FFF796FD0027FC4300282CD48D
:104E100015A902AA49232846FFF7F5FE002824D445
:104E2000249E1797169002A8159015A83146FEF7F4
:104E3000CCF9002819D03746083715A82022394662
:104E4000FEF7F9F9002810D03146283115A82022A4
:104E5000FEF7F1F9002808D02398229B32680090D1
:104E600028463946FEF72EFB044620461DB0F0BD0D
:104E700070B592B00D46044602AE10461946324651
:104E800001F064FD29682A46083220463346FFF7C0
:104E900065FE002811D403462A680AA80090283528
:104EA00020462946FFF746FD002808D4179B169A8E
:104EB0000AA92046FFF7A7FE01E00020C04312B078
:104EC00070BD70B58AB00C46054602AE1046194654
:104ED000324601F03BFD216822460832284633461F
:104EE000FFF73CFE002809D403460E982268009084
:104EF000283428462146FFF71DFD01E00020C0436D
:104F00000AB070BDF0B5B7B0059306920E460546DF
:104F100036A840210170EA6901242146904735A84E
:104F200000270770EA6921469047EA692021304648
:104F300004919047296A0720400307908847E96A4F
:104F4000284688470821C943002822D403962C1DEF
:104F5000089132A92046FEF738F90899CE1D00289D
:104F600019D031A92046FEF7FBF8002813D031A84C
:104F7000017802942046FEF7DEF800280BD0329C20
:104F8000002C0BD031A80078A0420AD90898461D01
:104F900001E008310E46304637B0F0BD0898861D56
:104FA000F9E7309705982F9006982E90686806903C
:104FB000EF6813AE3046FEF7F1FF0698C11931AF26
:104FC0003A7830460E4600F067F83A782EA8314617
:104FD000FEF74CF938780694241A002C039E029FA1
:104FE0003DD009A8A0210170EA6901219047296AF2
:104FF00007988847E96A28468847002843D412A9B9
:105000003846FEF7ADF80899CE1C0028C3D011A988
:105010003846FEF7A5F80028BDD012A8007811A9DF
:10502000097841433846FEF786F80028B3D011A826
:10503000007801282AD112A802782046944228D369
:10504000E86869680E1813A8314600F025F812AF19
:105050003A782EA83146FEF709F93878BCE7049F64
:10506000019709AD009513A801210022134600F015
:105070001CF8284631463A4608F0CAFA0028069E2F
:1050800089D0089E87E70898061D84E70898861C43
:1050900081E70898461C7EE7E0B513460A460021E2
:1050A0000091019100F001F88CBD1CB504460598F3
:1050B0000190049800902046FEF722FF002803D1BB
:1050C0002046FEF717FF1CBD01F0A8FCF0B5FFB0AD
:1050D00086B0044605F058FEAA2877D1251D944EC7
:1050E00031460D312846FEF73BF8002873D04D209D
:1050F00080003118202228460991FEF79CF80028EC
:1051000069D0552080003718202228463946FEF7FE
:1051100092F800285FD031460C312846FEF720F87F
:10512000002858D0307B022800D3D6E03146083121
:10513000002228460892FEF728F800284BD0354672
:1051400014357C23204609992A46FFF7DBFE002808
:1051500000D5C2E0089984918390829535469035B8
:1051600082A8294607F087FC002800D5B5E00695FF
:105170005D20850070193146F4312022049008F03A
:1051800034FAF02005903058652189000391705061
:1051900008988190A420305A80903046A6307F90A5
:1051A0003320C00031187FA88022079107F0AEFDA0
:1051B000002800D591E01F20C2431046089B00281C
:1051C00011D03118495D0B43401CF8E7216AD52006
:1051D000C001FE3801E0216A56488847606A80476E
:1051E0007FB006B0F0BD002B1AD00998394602F006
:1051F00081FE002875D00020B0734520800035184E
:105200000698294607F028FF20220998294608F029
:10521000FFF9002861D1A1694A4878448847DFE74F
:105220001546079802F04FFE3061401C59D0059892
:105230003058012851D1FEF7EFFB089003983258FF
:105240002EA800900027204604993B46FFF772FBEA
:10525000002842D42EA956AAA2232046FFF7D3FC49
:1052600000283AD45597549056A8539053A82EA985
:1052700007F067FC401C4FD02EA818300027394695
:1052800003F0AAF90899884246D12EA8017F2B4A3B
:105290001268126811ABFEF7E5FB401C24D02EA863
:1052A0001F3011A9712208F018FA002834D1306992
:1052B000FBF7C0F802462EA8007F03282CD11F4818
:1052C000006881880F91C08810900C2F0FD02EA8F5
:1052D000C0590AA9C8513F1DF7E7216AD520C0016E
:1052E0007BE7216A144878E7216A154817E0B0681F
:1052F0000E90307B411E88410D901F35022000909A
:1053000001950AA805210FABFBF770F8002803D020
:105310000120B073002006E0216AD520C001884733
:10532000606A80470120002800D059E765E7C04641
:10533000C0020020876A000008B000008C06002030
:1053400007B000002B010000F0B587B0044600272D
:105350000697222005904320C000254D2E18049664
:10536000652080002B58287BA968039704AA029225
:105370000191411E884100903320C00029185D2012
:1053800080002A18204602F085FD00281BD4014623
:10539000184802684B200090092080012B183046E5
:1053A0001E4607F015FE01468F2080002950002977
:1053B00009D4687B00280CD020698047A87B00288E
:1053C0000BD03D460AE0216A0B488847606A804757
:1053D0000BE0204600F014F807E09235074B7B44C1
:1053E000204629463246FEF7EFFF07B0F0BDC04623
:1053F000C00200208C06002007B000003F00000023
:10540000B0B504460925A801044A1018E26990477E
:10541000216A28038847606A8047B0BDC002002027
:1054200010B50446002907D08F208000074909588D
:105430002046FFF7E5FF04E0216A03488847606AD9
:1054400080476069804710BD85690000C002002068
:1054500070B594B014460A46014601A8FAF7FDFF5C
:10546000002812D001A8027800210091011D2125F9
:105470000CAE2846334605F055FC2022284631461E
:105480002346FEF725FD012000E0002014B070BD8A
:1054900070B59EB0144614AAFFF7DAFF002813D0A7
:1054A000212001A914AA01252B46FEF70BFD002897
:1054B0000ED101AE08363046FCF73EFE21222046D2
:1054C000314601F0CEFA00E0002528461EB070BD3E
:1054D00001F0A4FAF0B58BB00646119C012814D057
:1054E000129F032E0FD1212205AE084611463246E7
:1054F000FCF70FFF002500951421304622463B465D
:10550000FDF76CFF1AE0022E27D10393049405A83F
:105510001424447000250570871C2122084611467A
:105520003A46FCF7F6FE022E0BD11099002922D044
:105530000094002204983B4603F0B2FA002819D1E7
:1055400019E003980090019505A816219623049C64
:105550002246FCF71FFF25540CE02546002400924C
:105560000194781E83B22122084611462A46FCF790
:1055700011FF2C54012528460BB0F0BD70B59AB030
:1055800004460069002828D00D46217BA068401CF5
:10559000491EC9B211AA00263346FFF779FF002839
:1055A0001CD06B892A89A0680078A96B33250295E5
:1055B00004AD0195009111A9FFF78CFF00280CD0D4
:1055C000246904AD284608F081F8421C284621468B
:1055D00008F01EF84642464100E0002630461AB068
:1055E00070BDF0B585B00C4605460020A873297B38
:1055F000082927D82E460E3603AF019700210291C5
:105600000822384601F037FA2A7BB81A0830A96810
:1056100001F027FA27462B34204608F057F8C5B288
:10562000304621462A4601F016FA2020705570199E
:10563000421CB96C0198FCF75EFC2818801902998D
:105640004170012005B0F0BD70B598B004466D46BC
:105650006021284607F0C4FFA16928461C3040227B
:1056600008F04DF85C20295C0020002917D1227B2E
:10567000082A14D8267D082E11D86D46A81A143091
:10568000A16807F0B2FFA81B1C302169324607F061
:10569000ACFF04486022294607F0A7FF012018B09C
:1056A00070BDC046C8050020B0B504467920C100D1
:1056B0000E4D284607F094FF0D480460FCF7CEFC21
:1056C000F120800001242C540A48047001F0EAFA09
:1056D0002120C100084807F083FF002006F0B2FA3D
:1056E000204606F0AFFA00F0A3FBB0BD0002002098
:1056F0008C0600208B0600209006002080B501F06B
:1057000047FB80BD044800880449088004480178AC
:1057100001220A430270704782060020840600209E
:105720008606002002480178FE220A400270704777
:10573000860600200448008804490880044801784F
:1057400002220A4302707047820600208806002069
:105750008606002002480178FD220A400270704748
:105760008606002004480021017004480178FC22CC
:105770000A4002707047C0468A0600208606002054
:10578000F8B5E74D2878152800D1A2E00D2800D102
:10579000A7E00E2829D0FC4C0027052800D0E7E020
:1057A000676001202070204605F0FAFA042005F019
:1057B00065FB6060002800D162E2972800D15FE2BB
:1057C000692800D01EE201F08BFA01F08BFAC225A5
:1057D000EE4E7753042005F051FB6060002800D1A5
:1057E0004EE2972800D14BE239E1E94D2888411C6F
:1057F0002980E84C2078820712D5E74A128889B2BE
:10580000891A0A290CDBE54901220A70FD210840AA
:105810002070E34979440020024606F005FC207818
:10582000C10706D0DF4909882A88511A322900DBCE
:105830002EE2D54D00266E6001202870284605F026
:10584000AFFA042005F01AFB6860692800D04BE12C
:1058500001F046FA01F046FAC224CC4E0020305343
:10586000042005F00BFB6860002800D108E29728AF
:105870002AD105E2C820305C315B814200D3FFE1D0
:1058800005F0D0FA002800D0FAE105F03FFAAA2886
:1058900004D105F079FAAA2800D0F1E17159325B00
:1058A00050010818D023F358002B04D09847002843
:1058B00007D0325B7159012801D15001081801F05D
:1058C00067FA305B401C3053C42570590028D1D191
:1058D000D6E1F4488079012803D1A879000700D4E3
:1058E000D9E1EE4C0027676001202070204605F0CA
:1058F00057FA042005F0C2FA6060002800D1BFE129
:10590000692800D1B0E0972800D1B9E1E44CC42661
:10591000A059002800D1ABE1C820205CC225615B02
:10592000814200D3A4E105F07DFA002800D09FE178
:1059300005F0ECF9AA2804D105F026FAAA2800D02F
:1059400096E1A159625B50010818D023E358002B5F
:1059500004D09847002807D0625BA159012801D1E3
:105960005001081801F014FA605B401C6053CEE748
:10597000676001202070204605F012FA042005F02F
:105980007DFA6060692800D00EE101F0A9F901F00C
:10599000A9F9C225C24E7753042005F06FFA606062
:1059A000002800D16CE197282AD169E1C820305C39
:1059B000715B814200D363E105F034FA002800D026
:1059C0005EE105F0A3F9AA2804D105F0DDF9AA28C3
:1059D00000D055E13159725B50010818D023F358BB
:1059E000002B04D09847002807D0725B315901285A
:1059F00001D15001081801F0CBF9705B401C7053C5
:105A0000C42430590028D1D13AE1C820305C715B00
:105A1000814200D334E105F005FA002800D02FE1DF
:105A200005F074F9AA2804D105F0AEF9AA2800D02F
:105A300026E13159725B50010818D023F358002B2E
:105A400004D09847002807D0725B3159012801D152
:105A50005001081801F09CF9705B401C7053C4247D
:105A600030590028D1D10BE101F03AF901F03AF9AF
:105A7000C2258B4E7753042005F000FA60600028A1
:105A800000D1FDE097282AD1FAE0C820305C715B94
:105A9000814200D3F4E005F0C5F9002800D0EFE022
:105AA00005F034F9AA2804D105F06EF9AA2800D02F
:105AB000E6E03159725B50010818D023F358002BEF
:105AC00004D09847002807D0725B3159012801D1D2
:105AD0005001081801F05CF9705B401C7053C4243D
