{
    "txid": "9da35580da81e6d65fd426ea428f101b655d87be38efe56ae1efb40b86c837e3",
    "raw": "02000000022c9d955313e2a9d6ed09abccae8eb58ffc50889860db853c1a4837347f95becb010000006a473044022020ecfc7cbd4c4e29187effbc911b8ca8ee90347d7a9ee685887fbb7ee4bae0a102202aabb89c1ac09a442347f2ca31557f906e4f4026ad7d7d40fa874f530265614f0121031e4444d051dd58e95850d3fbd77de6074b47a1d262e71fe236baa93f6ba9978efeffffff2c9d955313e2a9d6ed09abccae8eb58ffc50889860db853c1a4837347f95becb000000006b483045022100c1670dee985035bd7c52fb54ce54a10861ef187694d3e12a15b0abe16590b90202202fd0b698b69a4bdaa6ea237720f577fcfda70cf6e1c8111da1674e03501a89df0121025d5988319ce48f6f5c0a5689e34713fa4223bbfd40fb1f62933112a1b75f008cfeffffff05000000000000000007c050040351303200e40b54020000001976a914da61c47adbad4a81e5f14e1fabb3d167a51ca44888ac00000000000000005876a914020f33dddebac1f55bc6db1d8ae4ae4b8c56559a88acc03472766e7405544553542100e1f505000000005420f488546fb30222b75b69f5163c6c823006755205c2e8289d326f09f220e61de800000000000000007500743ba40b0000001976a914d63c9216093117b6fdbbac84b9ab11c817d6f84788ac00000000000000003076a91468b5d4a075dd14e064dd7a70ceba10e37146fa6f88acc01472766e720524544553540000000000000000ff0175408f0200",
    "use_raw": true,
    "amount": 150000000000,
    "fees": 100000000,
    "to": "mhKsh7EzJo1gSU1vrpyejS1qsJAuKyaWWg",
    "sign_paths": [
        "m/44'/1'/0'/0/0",
        "m/44'/1'/0'/0/1"
    ],
    "change_path": "m/44'/1'/0'/1/0",
    "lock_time": 0,
    "utxos": [
        {
            "txid": "2c9d955313e2a9d6ed09abccae8eb58ffc50889860db853c1a4837347f95becb",
            "raw": "0200000001f4c2b478dc9cea2df43c8bb94938ff43f3bed5aeb3af9e36cdb7016104626bf2000000006b483045022100b7b8244b3f83648397fa3c37349ed1827bf40bfca22d4f87cc019d3fded63e1d02205434ce222de35e04ab98be54af57d2c8b464f0da76a0275443b33c7b1df79344012103462f1e48396ce2a4d7694d107fef5123fe4d1e394394a370fa4901e744b4884efdffffff020000000bdfd63e001976a914b242ba04b8526b533b17b168d27eaf0da7bacb8588ac003da8f2220000001976a914cbae5b50cf939e6f531b8a6b7abd788fe14b029788ac20041d00",
            "output_indexes": [
                1
            ],
            "output_amounts": [
                150100000000
            ]
        },
        {
            "txid": "2c9d955313e2a9d6ed09abccae8eb58ffc50889860db853c1a4837347f95becb",
            "raw": "0200000002109ba36b1523fc1b00003cb8a54821852e128445dfdd881395916c87ad6b5328020000006a473044022045f5a1ef60094f6cd247682722db655ee97f71e2198862c605e4e518e6860127022020c0cd1eb4fec660d4e6e7a72059c47c8d07bf4c40ac5208c46707eb1d064aa60121028c642fef502066fa8f5330c800d74031173cfac6b7e547314da43663e648b6d9feffffff109ba36b1523fc1b00003cb8a54821852e128445dfdd881395916c87ad6b5328000000006a4730440220045f52954a57e4747927a8037710bc795da632b580f1af2e37d2ff04c78a30e402206517d3189171192717f29a210dcc762dd84f3c5c9e211766b65b8828a0539aca0121028c642fef502066fa8f5330c800d74031173cfac6b7e547314da43663e648b6d9feffffff0300000000000000002e76a9143a60e476f331ea8a017f36561cae3d798da16d0f88acc01272766e7405544553542100e1f505000000007500000000000000000bc0505007052454455354014026d6a6040000001976a9143a60e476f331ea8a017f36561cae3d798da16d0f88ac33580100",
            "output_indexes": [
                0
            ],
            "output_amounts": [
                0
            ]
        }
    ]
}